:020000040800F2
:10000000F007002001010008D91700081F0B0008A5
:10001000D517000825080008432900080000000043
:10002000000000000000000000000000451E000865
:100030002908000800000000851C0008DF1F0008D8
:100040001B0100081B0100081B0100081B01000820
:100050001B0100081B0100081B0100081B01000810
:100060001B0100081B0100081B0100081B01000800
:100070001B0100081B0100081B0100081B010008F0
:100080001B0100081B0100081B0100081B010008E0
:100090001B0100081B0100081B0100081B010008D0
:1000A0001B0100081B0100081B0100081B010008C0
:1000B00041200008B92000081B0100081B010008AE
:1000C0001B0100081B0100081B0100081B010008A0
:1000D0001B0100080D2600081B010008612600080E
:1000E0001B0100081B0100081B010008DFF80CD0F1
:1000F00000F00EF900480047192C0008F007002016
:100100000648804706480047FEE7FEE7FEE7FEE7B1
:10011000FEE7FEE7FEE7FEE7FEE7FEE7E11F000879
:10012000ED00000830B505462A460B4612F8010BD3
:1001300013F8014B08B1A042F8D01CB1002802D03E
:100140006D1CF1E7284630BDF0B480EA0102D40FFF
:100150004200B2EB410F02D20246084611464A0065
:1001600042D0C30DDDB2C1F3C752AD1A202D35DA2E
:10017000C1F3160141F4000204B15242C5F1200658
:1001800002FA06F12A411044B3EBD05F23D0C4B188
:10019000012DA0EBC35009DCF0BC4FF0004202EA95
:1001A000C352DBB200F5000000F083B8400000F15C
:1001B000807000EBC350A0F1807040EAD17049001C
:1001C00009E0490841EAC071A0EBC35000F5000006
:1001D000400800EBC350F0BC00F062B8614201225D
:1001E00002EB4101001BF6E7F0BC704781F00041D3
:1001F000AAE780F00040A7E780EA010210B502F00C
:100200000043400022D04A001FD0010E01EB1261D2
:10021000C0F35600C2F3560240F4000042F400025C
:10022000A0FB022000047F39140400D0401C50EAD7
:10023000124001D44000491EC2B20C0604EBD0109B
:10024000401C4008802A02D003E0002010BD20F0AE
:100250000100002900DA0020184310BDC10F80EA18
:10026000E0700844CA079623002100F022B800F08D
:10027000004220F00040C10DC0F3160040F4000021
:100280007F2901DA00207047962903DCC1F196012D
:10029000C84001E096398840002AF4D040427047B7
:1002A0000029A8BF7047401C490008BF20F001008A
:1002B000704710B4B0FA80FC00FA0CF050EA010468
:1002C00004BF10BC704749B1CCF1200421FA04F4FA
:1002D00011FA0CF118BF012121430843A3EB0C01D3
:1002E000CB1D4FEA00614FEA102042BF002010BC36
:1002F000704700EBC35010440029A4BF10BC7047E6
:10030000401C490008BF20F0010010BC70470000ED
:10031000064C074D06E0E06840F0010394E8070052
:1003200098471034AC42F6D3FFF7E4FE407900085A
:1003300060790008FEB500270025B8E1052F35D209
:10034000DFE807F0033567A1D000701CC6B20020BB
:1003500010214FF6FF724FF47843CDE9002102904F
:10036000DCA2A021702000F093FE01F0A6FB044661
:10037000CCB9012001F07EFB044684B90020102195
:100380004FF6FF724FF47843CDE900210290D4A2DA
:10039000A021702000F07CFE0026012706E0204608
:1003A00001F008FE02E0204601F004FE77E1701C37
:1003B000C6B2002010214FF6FF724FF47843CDE90A
:1003C00000210290C9A2A021702000F061FE01F07E
:1003D00074FB0446CCB9022001F04CFB044684B9FE
:1003E000002010214FF6FF724FF47843CDE9002131
:1003F0000290BBA2A021702000F04AFE0026022736
:1004000006E0204601F0D6FD02E0204601F0D2FDD4
:1004100045E1002010214FF6FF724FF47843CDE9FB
:1004200000210290B4A2A021702000F031FE01F062
:10043000A9FB04467CB9002010214FF6FF724FF44F
:100440007843CDE900210290AFA2A021702000F0F6
:100450001FFE032712E0002010214FF6FF724FF419
:100460007843CDE900210290AAA2A021702000F0DB
:100470000FFE204601F09EFD002600274FF4FA7083
:1004800002F0A2FA0BE1002010214FF6FF724FF4A8
:100490007843CDE900210290A1A2A021702000F0B4
:1004A000F7FD4FF4FA7002F08FFA01F088FB044672
:1004B0007CB9002010214FF6FF724FF47843CDE94C
:1004C000002102909AA2A021702000F0E1FD0427F3
:1004D00003E00027204601F06DFD4FF47A7002F032
:1004E00073FADCE0002010214FF6FF724FF47843DE
:1004F000CDE90021029093A2C021702001F0D9F82B
:10050000002010214FF6FF724FF47843CDE900210F
:10051000029090A2C021E02001F0CBF80020102131
:100520004FF6FF724FF47843CDE9002102908CA280
:10053000D021E02001F0BDF8002010214FF6FF721D
:100540004FF47843CDE90021029088A2E0210846CB
:1005500001F0AFF834E002F0FFFA8749087008466E
:100560000078032805D100200870002D01DD681EE9
:10057000C5B281480078022806D100207E49087063
:10058000632D01DA681CC5B2002010214FF6FF72FE
:100590004FF47843CDE90021029078A2D021702059
:1005A00001F087F810204FF6FF714FF478420223D4
:1005B000CDE9002102902A46D021B02001F02EF88A
:1005C0006D4800780428C6D1002010214FF6FF7234
:1005D0004FF47843CDE9002102906BA2C021702036
:1005E00001F067F8002010214FF6FF724FF47843B6
:1005F000CDE90021029064A2D021702001F059F8C9
:10060000002010214FF6FF724FF47843CDE900210E
:1006100002905DA2E021702001F04BF800205649C5
:1006200008702946022001F0FDFA04468CBB002028
:1006300010214FF6FF724FF47843CDE9002102906C
:1006400057A2A021702000F023FD01205849087016
:10065000002010214FF6FF724FF47843CDE90021BE
:10066000029054A2A021D02001F023F800201021F4
:100670004FF6FF724FF47843CDE9002102904FA26C
:10068000B021702001F015F840F2DC5002F09CF926
:10069000FEBDFFE70027204601F08CFC00BF00BF35
:1006A0004FF4C87002F090F90A2E00D100E045E640
:1006B00000BF002010214FF6FF724FF47843CDE9C0
:1006C0000021029041A2A021702000F0F2FF00BFA3
:1006D000DEE70000C7EBB0B4CAD6D6B80000000011
:1006E000D6B8CEC6D5FDB3A300000000C7EBD4D961
:1006F000B0B4D2BBB4CE0000B6D4B1C8C1BDB4CE84
:10070000D6B8CEC600000000B6D4B1C8B3C9B9A6E9
:1007100000000000B6D4B1C8CAA7B0DC00000000D9
:10072000C9FAB3C9D6B8CEC6C4A3B0E5000000006C
:10073000C9FAB3C9D6B8CEC6C4A3B0E5B3C9B9A681
:100740000000000020303D3C204944203C3D393928
:1007500020202000204B323A202B202000000000D7
:10076000204B333A202D202000000000204B343A4B
:10077000204F4B2000000000400000202049442072
:10078000203D2020000000002020202020202020CC
:100790002020202020202020202020202020000099
:1007A000C2BCC8EBD6B8CEC6B3C9B9A6000000001B
:1007B0006E0000202020202020000000202020208B
:1007C00020202020202020200000000020202020A9
:1007D0002020202020202020202020202020202019
:1007E0002020202020202020202020202020000049
:1007F00008B50121042001F067FA10208DF80300EC
:100800000220ADF8000003208DF80200694604487C
:1008100000F0EDF80221024800F07DF908BD00006B
:100820000008014000BFFEE77047000002488068F2
:100830000249086070470000880000205C0000202A
:1008400008B50121042001F03FFA4020ADF8000076
:1008500018208DF8030003208DF8020069461B481C
:1008600000F0C5F80121042001F02EFA8020ADF837
:10087000000018208DF8030003208DF8020069465F
:10088000124800F0B4F80121082001F01DFA0120FF
:10089000ADF8000018208DF8030003208DF8020049
:1008A00069460B4800F0A3F80121082001F00CFA7A
:1008B0000220ADF8000018208DF8030003208DF809
:1008C00002006946024800F092F808BD00080140A5
:1008D000000C014010B5FFF7B3FF00F001F810BDA8
:1008E00000B587B00121022001F0CEF940F2CF70AF
:1008F000ADF8140040F2CF20ADF810000020ADF8A4
:100900001600ADF812008DF8180004A9294801F06E
:10091000E3FD40F2E730ADF814004720ADF81000D9
:1009200004A94FF0804001F0D7FD0121880701F0B4
:1009300043FC01211F4801F03FFC012211469007B2
:1009400001F05DFC012211461A4801F058FC6020BC
:10095000ADF800000120ADF802000020ADF808005D
:100960006946144801F054FC0821124801F09CFC2F
:100970006946104801F0A2FC08210E4801F0F0FC85
:1009800069460C4801F0FAFC08210A4801F046FDCE
:100990006946084801F04CFD0821064801F086FD33
:1009A0000121880701F00EFC0121024801F00AFC38
:1009B00007B000BD0004004008B54FF4E06000F04F
:1009C00057FF1C208DF8000000208DF80100032047
:1009D0008DF8020001208DF80300684600F010FF3A
:1009E0001D208DF80000684600F00AFF08BD2DE9C3
:1009F000F0410246002500260020002300240027A5
:100A000091F803C00CF00F0591F803C00CF0100C26
:100A1000BCF1000F03D091F802C04CEA050591F833
:100A200000C0BCF1000F31D0146800202BE04FF063
:100A3000010C0CFA00F3B1F800C00CEA03069E4268
:100A400020D183004FF00F0C0CFA03F7BC4305FADA
:100A500003FC4CEA040491F803C0BCF1280F06D152
:100A60004FF0010C0CFA00FCC2F814C00AE091F837
:100A700003C0BCF1480F05D14FF0010C0CFA00FC8B
:100A8000C2F810C0401C0828D1D31460B1F800C0CF
:100A9000BCF1FF0F34DD546800202EE000F1080C9B
:100AA0004FF0010808FA0CF3B1F800C00CEA030695
:100AB0009E4221D183004FF00F0C0CFA03F7BC4388
:100AC00005FA03FC4CEA040491F803C0BCF1280FBA
:100AD00005D100F1080C08FA0CF8C2F8148091F85E
:100AE00003C0BCF1480F07D100F1080C4FF001081A
:100AF00008FA0CF8C2F81080401C0828CED35460C5
:100B0000BDE8F0810246002093680B400BB1012044
:100B100000E000207047416170470161704700BFED
:100B2000FEE700007CB50546EF208DF800000120AF
:100B30008DF801001A480068000E8DF80200184870
:100B40000068000C8DF8030015480088000A8DF835
:100B50000400134800788DF8050007208DF8060082
:100B600000208DF807000F49088012E0012001F0F5
:100B70002BFF0C48008800F4004050B100200949C8
:100B8000088069460848FFF7CDFA04460CB12046B4
:100B90007CBD681E80B2051EE8D100BFF8E70000EA
:100BA0006400002070000020CC00002008B5012166
:100BB0000C2001F089F84FF48070ADF80000482057
:100BC0008DF8030069461148FFF711FF2020ADF8AA
:100BD000000048208DF8030069460D48FFF707FF25
:100BE0004020ADF8000048208DF803006946084811
:100BF000FFF7FDFE8020ADF8000048208DF80300CF
:100C000069460348FFF7F3FE08BD000000080140F5
:100C1000000C01402DE9F04107460C4615461E46E2
:100C20002A2000F077FD384600F064FD284600F0E9
:100C300061FD2B2000F06EFD204600F05BFD30468C
:100C400000F058FD2C2000F065FDBDE8F08170B586
:100C500004460D4616462B46224629462046FFF7F7
:100C6000D9FF304600F046FD70BD2DE9F04706463D
:100C70000F4614461D46DDF820A0681E83B2601E94
:100C800082B239463046FFF7C5FFB8460EE0B1469E
:100C900006E0504600F02EFD09F101001FFA80F930
:100CA000A145F6DB08F101001FFA80F8A845EEDB4C
:100CB000BDE8F08708B50121042001F005F8012105
:100CC000082001F001F80120ADF8000010208DF897
:100CD000030003208DF8020069460A48FFF787FEEB
:100CE0004FF46040ADF8000069460748FFF77FFE0B
:100CF00001210448FFF711FF4FF460410248FFF75C
:100D00000CFF08BD00080140000C014010B5FFF7C2
:100D1000D1FF4FF480418648FFF7FDFE642001F0CB
:100D200053FE4FF480418248FFF7F7FE642001F044
:100D30004BFE10217F48FFF7F0FE642001F044FED7
:100D4000112000F0E7FC782001F03EFECF2000F0FB
:100D5000E1FC002000F0D7FCD92000F0D4FC3020CA
:100D600000F0D1FCED2000F0D5FC642000F0CBFCBD
:100D7000032000F0C8FC122000F0C5FC812000F028
:100D8000C2FCE82000F0C6FC852000F0BCFC10206E
:100D900000F0B9FC782000F0B6FCCB2000F0BAFCE3
:100DA000392000F0B0FC2C2000F0ADFC002000F059
:100DB000AAFC342000F0A7FC022000F0A4FCF720DD
:100DC00000F0A8FC202000F09EFCEA2000F0A2FC2D
:100DD000002000F098FC002000F095FCC02000F0FE
:100DE00099FC212000F08FFCC12000F093FC122020
:100DF00000F089FCC52000F08DFC322000F083FC5F
:100E00003C2000F080FCC72000F084FCC12000F0F2
:100E10007AFC362000F07EFC782000F074FC3A204A
:100E200000F078FC552000F06EFCB12000F072FC60
:100E3000002000F068FC182000F065FCB62000F0EF
:100E400069FC0A2000F05FFCA22000F05CFCF220AC
:100E500000F060FC002000F056FC262000F05AFC58
:100E6000012000F050FCE02000F054FC0F2000F0C6
:100E70004AFC202000F047FC1E2000F044FC092022
:100E800000F041FC122000F03EFC0B2000F03BFC87
:100E9000502000F038FCBA2000F035FC442000F06F
:100EA00032FC092000F02FFC142000F02CFC05205F
:100EB00000F029FC232000F026FC212000F023FC78
:100EC000002000F020FCE12000F024FC002000F0D5
:100ED0001AFC192000F017FC192000F014FC002067
:100EE00000F011FC122000F00EFC072000F00BFCBB
:100EF0002D2000F008FC282000F005FC3F2000F029
:100F000002FC022000F0FFFB0A2000F0FCFB08209E
:100F100000F0F9FB252000F0F6FB2D2000F0F3FB9C
:100F20000F2000F0F0FB292000F0F4FB10BD0000C2
:100F3000000C0140000801402DE9FF5F80468A4611
:100F400017469B460F9D00200290CDF80080284652
:100F500005EBD071C1F347042046E21704EB52724F
:100F6000D2102146E31704EB5373DB10A4EBC30349
:100F70000BB1012300E000231A446A4392B20192AC
:100F8000A7F12000C7B20AEB0500401E83B208EBB0
:100F90000400401E82B251464046FFF73BFE002649
:100FA00069E00C2D07D107EB4700354901EB8000C4
:100FB000805D03901BE0102D05D1324800EB071037
:100FC000805D039013E0182D07D107EB47002E49F1
:100FD00001EB0010805D039009E0202D05D12B4826
:100FE00000EB8710805D039001E0BDE8FF9F4FF0AC
:100FF00000093AE01098C8B9012000FA09F00399F5
:10100000084018B1584600F075FB02E00E9800F059
:1010100071FB0298401CC0B20290029890FBF4F160
:1010200004FB1100E8B90020029021E0012000FA41
:1010300009F00399084020B15A4651464046FFF74F
:1010400006FE08F101001FFA80F80098A8EB0000E6
:10105000A04206D1DDF800800AF101001FFA80FAF3
:1010600006E009F1010000F0FF09B9F1080FC1DB4A
:1010700000BF701C86B20198864292DB00BFB4E7C5
:10108000E83700085C3C00084C4200081C5400088B
:101090002DE9FE4F8046894617469A46DDE90D4602
:1010A0000C9D36E00C2C09D153463A464946404641
:1010B000CDE90146009500F031F825E0102C09D16A
:1010C00053463A4649464046CDE90146009500F070
:1010D000C9F819E0182C09D153463A46494640460A
:1010E000CDE90146009500F059F90DE0202C09D119
:1010F00053463A4649464046CDE90146009500F040
:10110000F1F901E0BDE8FE8FBF1C08EB04001FFAF7
:1011100080F838780028C5D100BFF3E72DE9FF5FDC
:101120000646894692469B460F9C002003900096F7
:101130002046E21704EB5272D2102146E31704EB6B
:101140005373DB10A4EBC3030BB1012300E00023B6
:101150001A44624392B2019205200290002579E080
:1011600005EB850000EBC5003D4911F810009AF829
:10117000001088426BD105EB850000EBC5003849B3
:1011800001EB400040789AF8011088425FD109EBEA
:101190000400401E83B23019401E82B249463046D8
:1011A000FFF738FD00274FE04FF0000846E01098A9
:1011B00008BB05EB850000EBC500294901EB4000A9
:1011C000801CC05D012101FA08F1084018B15846A1
:1011D00000F090FA02E00E9800F08CFA0398401CA0
:1011E000C0B20390039890FBF4F104FB110008BB1C
:1011F0000020039025E005EB850000EBC5001849B1
:1012000001EB4000801CC05D012101FA08F108409B
:1012100020B15A4649463046FFF719FD701C86B288
:101220000098301AA04205D1009E09F101001FFA72
:1012300080F906E008F1010000F0FF08B8F1080F9E
:10124000B5DB00BF781CC7B201988742ACDB00BF9A
:10125000681C85B20298854282DBBDE8FF9F0000D2
:10126000DC6B00082DE9FF5F0646894692469B46E7
:101270000F9C0020039000962046E21704EB527268
:10128000D2102146E31704EB5373DB10A4EBC30326
:101290000BB1012300E000231A44624392B2019291
:1012A00043200290002571E005EB05103A4911F842
:1012B00010009AF80010884265D105EB05103649F8
:1012C00001EB400040789AF8011088425BD109EBAD
:1012D0000400401E83B23019401E82B24946304697
:1012E000FFF798FC00274BE04FF0000842E0109811
:1012F000F8B905EB0510284901EB4000801CC05DE2
:10130000012101FA08F1084018B1584600F0F2F93D
:1013100002E00E9800F0EEF90398401CC0B2039072
:10132000039890FBF4F104FB1100F8B9002003903E
:1013300023E005EB0510184901EB4000801CC05D5F
:10134000012101FA08F1084020B15A4649463046C9
:10135000FFF77DFC701C86B20098301AA04205D1C0
:10136000009E09F101001FFA80F906E008F1010072
:1013700000F0FF08B8F1080FB9DB00BF781CC7B256
:1013800001988742B0DB00BF681C85B20298854295
:101390008ADBBDE8FF9F00005E6C00082DE9FF5F5F
:1013A0000646894692469B460F9C00200390009675
:1013B0002046E21704EB5272D2102146E31704EBE9
:1013C0005373DB10A4EBC3030BB1012300E0002334
:1013D0001A44624392B2019205200290002579E0FE
:1013E00005EB850000EB45103D4911F810009AF817
:1013F000001088426BD105EB850000EB45103849A1
:1014000001EB400040789AF8011088425FD109EB67
:101410000400401E83B23019401E82B24946304655
:10142000FFF7F8FB00274FE04FF0000846E0109868
:1014300008BB05EB850000EB4510294901EB400096
:10144000801CC05D012101FA08F1084018B158461E
:1014500000F050F902E00E9800F04CF90398401C9F
:10146000C0B20390039890FBF4F104FB110008BB99
:101470000020039025E005EB850000EB451018499E
:1014800001EB4000801CC05D012101FA08F1084019
:1014900020B15A4649463046FFF7D9FB701C86B248
:1014A0000098301AA04205D1009E09F101001FFAF0
:1014B00080F906E008F1010000F0FF08B8F1080F1C
:1014C000B5DB00BF781CC7B201988742ACDB00BF18
:1014D000681C85B20298854282DBBDE8FF9F000050
:1014E000447500082DE9FF5F0646894692469B46F3
:1014F0000F9C0020039000962046E21704EB5272E6
:10150000D2102146E31704EB5373DB10A4EBC303A3
:101510000BB1012300E000231A44624392B201920E
:1015200005200290002571E005EB85103A4911F87D
:1015300010009AF80010884265D105EB85103649F5
:1015400001EB400040789AF8011088425BD109EB2A
:101550000400401E83B23019401E82B24946304614
:10156000FFF758FB00274BE04FF0000842E01098CF
:10157000F8B905EB8510284901EB4000801CC05DDF
:10158000012101FA08F1084018B1584600F0B2F8FC
:1015900002E00E9800F0AEF80398401CC0B2039031
:1015A000039890FBF4F104FB1100F8B900200390BC
:1015B00023E005EB8510184901EB4000801CC05D5D
:1015C000012101FA08F1084020B15A464946304647
:1015D000FFF73DFB701C86B20098301AA04205D17F
:1015E000009E09F101001FFA80F906E008F10100F0
:1015F00000F0FF08B8F1080FB9DB00BF781CC7B2D4
:1016000001988742B0DB00BF681C85B20298854212
:101610008ADBBDE8FF9F0000B67600082DE9FF4F8A
:1016200085B0074691461D46DDE913A600200490CB
:10163000304606EBD071C1F3470B002434E0281B81
:10164000401EC1B20A2001F055FFB9FBF0F00A219B
:10165000B0FBF1F201FB12080498A0B9681EA04289
:1016600011DDB8F1000F0CD1002004FB0B71CDE9A6
:1016700000A6029088B22022129B0699FFF75CFC1C
:1016800010E001200490002008F13001CAB204FBF0
:101690000B71CDE900A6029088B2129B0699FFF764
:1016A0004BFC00BF601CC4B2AC42C8DB09B0BDE853
:1016B000F08F2DE9FE4F06460F4614469846DDE9A9
:1016C0000D5ADDF8309010E0CDE9015ACDF80090C8
:1016D0002278434639463046FFF72EFC284605EB74
:1016E000D07106EB61018EB2641C20780028EBD12A
:1016F000BDE8FE8F10B50446201200F01DF8E0B2E0
:1017000000F01AF810BD10B50446204600F014F899
:1017100010BD000010B504464FF400410548FFF726
:10172000FAF9204600F008F84FF400410148FFF7AD
:10173000F4F910BD000C014070B50446002519E015
:1017400001210E48FFF7E7F904F0800028B14FF4BB
:1017500000510B48FFF7E1F904E04FF4005108484D
:10176000FFF7D9F901210548FFF7D7F96006040E04
:10177000681CC5B2082DE3DB70BD00000008014005
:10178000000C014008B50121082000F09DFA10204E
:101790008DF803000002ADF8000003208DF8020070
:1017A00069460448FFF723F94FF480510148FFF7D9
:1017B000B2F908BD000C014000BF0549098801F0DD
:1017C00040010029F9D00249091D08807047000036
:1017D0000048004000BFFEE7704708B54FF4A06026
:1017E00000F046F825208DF8000001208DF801005A
:1017F0008DF802008DF80300684600F001F808BD7E
:1018000070B5002100230F22C47804B3154C24685E
:1018100004F4E064C4F5E064210AC1F10403CA40A1
:10182000447804FA03F184781440214309010E4CF2
:101830000678A155047804F01F050124AC40057812
:101840006D11AD0005F1E025C5F8004109E004780F
:1018500004F01F050124AC40044D0678761145F8CC
:10186000264070BD0CED00E000E400E080E100E007
:1018700002490143024A1160704700000000FA0566
:101880000CED00E02A4A12783AB9B32805D10122BA
:10189000274B1A70274A106048E0254A1278012A1F
:1018A00007D1B32805D10222214B1A70214A50607A
:1018B0003CE01F4A1278022A05D103221C4B1A7001
:1018C0001C4A906032E01A4A1278032A05D1042299
:1018D000174B1A70174AD06028E0154A1278042A6C
:1018E00017D15B2805D10022114B1A70114A1061E3
:1018F0001CE05B281AD000220D4B1A70002105E075
:1019000000220C4B43F821204A1CD1B20529F7DBF9
:101910000CE00022064B1A70002105E00022054B66
:1019200043F821204A1CD1B20529F7DB704700009B
:1019300060000020740000200448806804490860AA
:101940000248C06803490860704700007400002026
:1019500054000020580000204FF07E5008490860D5
:10196000002048608860C860086148614FF07E5080
:1019700088610020C861086248628862C862704756
:101980009C0000202DE9F0470446A4F17300FEF707
:1019900065FC1949C8600A46D1681069FEF7D4FB96
:1019A000154908610A465169D068FEF71FFC814657
:1019B000114881684846FEF71FFC07460E4A116928
:1019C0005068FEF719FC81460B4AD1681068FEF793
:1019D00013FC82464946FEF7B7FB80463946FEF7C0
:1019E000B3FB0646FEF743FC05460348C0680249C0
:1019F00048612846BDE8F0879C0000202DE9F047AB
:101A00000446A4F16400FEF729FC194948620A461D
:101A1000516A906AFEF798FB154988620A46D16AB6
:101A2000506AFEF7E3FB81461148016A4846FEF71B
:101A3000E3FB07460E4A916AD069FEF7DDFB81465B
:101A40000B4A516A9069FEF7D7FB82464946FEF77A
:101A50007BFB80463946FEF777FB0646FEF707FC20
:101A600005460348406A0249C8622846BDE8F08737
:101A70009C0000202DE9F041054600F00EFA00F030
:101A8000E3F9012000F003FA042000F00EFA02202E
:101A900000F015FA2846FFF78FFEEF1D384600F0DC
:101AA000EDF94FF4FA60FFF73DF806460EB1747A8F
:101AB00000E0FF242046BDE8F08170B500F0EDF9AC
:101AC00000F0C2F9012000F0E2F9032000F0EDF986
:101AD000012000F0F4F90526304600F0CFF94FF46C
:101AE000FA60FFF71FF805460DB16C7A00E0FF249D
:101AF000204670BD2DE9F04781460D4616461F462B
:101B000000F0CBF900F0A0F9012000F0C0F90820A6
:101B100000F0CBF91B2000F0D2F94846FFF74CFE4D
:101B20002812FFF749FEE8B2FFF746FE3012FFF732
:101B300043FEF0B2FFF740FE09F1240000EB252040
:101B4000E9B2084400EB2620F1B200EB010A50464E
:101B500000F094F94FF4FA60FEF7E4FF044664B134
:101B600094F80980E07AA17A00EB01203880607B4C
:101B7000217B00EB0120788001E04FF0FF08404618
:101B8000BDE8F08770B500F088F900F05DF901203C
:101B900000F07DF9032000F088F9032000F08FF9B0
:101BA0000726304600F06AF94FF4FA60FEF7BAFFF4
:101BB00005460DB16C7A00E0FF24204670BD70B57B
:101BC00000F06BF900F040F9012000F060F903200B
:101BD00000F06BF9052000F072F90926304600F09C
:101BE0004DF94FF4FA60FEF79DFF05460DB16C7A92
:101BF00000E0FF24204670BD08B50121102000F050
:101C000063F84FF40050ADF8000028208DF8030071
:101C100003208DF8020069460148FEF7E8FE08BD82
:101C2000001001402DE9F04106460C4600F035F960
:101C300000F00AF9012000F02AF9062000F035F939
:101C4000062000F03CF93046FFF7B6FD2012FFF702
:101C5000B3FDE0B2FFF7B0FD06F10D0000EB24206C
:101C6000E1B200EB0108404600F008F94FF4FA60D9
:101C7000FEF758FF07460FB17D7A00E0FF252846A2
:101C8000BDE8F0817047000029B1064AD2690243DD
:101C9000044BDA6104E0034AD2698243014BDA6102
:101CA000704700000010024029B1064A1269024341
:101CB000044B1A6104E0034A12698243014B1A6122
:101CC000704700000010024029B1064A92690243A1
:101CD000044B9A6104E0034A92698243014B9A6182
:101CE000704700000010024029B1064AD268024342
:101CF000044BDA6004E0034AD2688243014BDA60A5
:101D0000704700000010024030B50021002200247E
:101D100000232D4D6D6805F00C0121B1042905D07B
:101D2000082923D105E0294D056022E0274D0560F3
:101D30001FE0254D6D6805F47012234D6D6805F4A4
:101D40008034022505EB92421CB9214D55430560B4
:101D50000BE01D4D6D6805F400351DB11C4D55435C
:101D6000056002E0194D5543056002E0174D05601E
:101D700000BF00BF144D6D6805F0F0010909154D55
:101D80006B5C0568DD4045600F4D6D6805F4E061F2
:101D9000090A104D6B5C4568DD4085600A4D6D6831
:101DA00005F46051C90A0B4D6B5C4568DD40C560A8
:101DB000054D6D6805F44041890B074D6B5CC568A6
:101DC000B5FBF3F5056130BD0010024000127A004A
:101DD00000093D00140000202400002008B5012166
:101DE0000820FFF771FF10208DF803000001ADF807
:101DF000000003208DF8020069460448FEF7F7FD55
:101E00004FF480710148FEF786FE08BD000C0140CA
:101E100008B501210820FFF757FF10208DF80300B7
:101E20004001ADF8000003208DF802006946044827
:101E3000FEF7DDFD4FF400710148FEF76CFE08BDB2
:101E4000000C01407047000010B50B490968080EEE
:101E5000FFF7B2FC08480068C0F30740FFF7ACFC8E
:101E600005480088C0F30720FFF7A6FC0249087860
:101E7000FFF7A2FC10BD00006400002010B504466E
:101E80002012FFF799FCE0B2FFF796FC10BD10B5E9
:101E900004462046FFF790FC10BD10B5EF20FFF779
:101EA0008BFC0120FFF788FC10BD10B50446C4F37D
:101EB0000720FFF781FCE0B2FFF77EFC10BD10B5F4
:101EC00004462046FFF778FC10BD10B500F002F87C
:101ED00010BD00000CB50020019000903348006850
:101EE00040F480303149086000BF3048006800F499
:101EF000003000900198401C0190009818B901989A
:101F0000B0F5A06FF1D12948006800F4003010B19D
:101F10000120009001E0002000900098012843D1AA
:101F20002348006840F01000214908600846006816
:101F300020F0030008600846006840F002000860D6
:101F40001A48406819494860084640684860084691
:101F5000406840F4806048600846406820F47C1087
:101F600048600846406840F4E81048600846006849
:101F700040F08070086000BF0C48006800F00070FE
:101F80000028F9D00948406820F00300074948605C
:101F90000846406840F00200486000BF03484068BF
:101FA00000F00C000828F9D10CBD00000010024020
:101FB000002002407047042808D14FF0E021096951
:101FC00041F004014FF0E022116107E04FF0E02101
:101FD000096921F004014FF0E02211617047704758
:101FE00010B51348006840F0010011490860084628
:101FF0004068104908400E494860084600680E498C
:1020000008400B4908600846006820F480200860FA
:102010000846406820F4FE0048604FF41F008860C6
:10202000FFF753FF4FF000600449086010BD000047
:10203000001002400000FFF8FFFFF6FE08ED00E090
:1020400010B50121880700F0C9F870B10748008871
:1020500040F40040054908800121880700F0AFF8EE
:1020600000214FF0804000F0ADF810BD700000205E
:102070003EB505460C4601210846FFF705FEADF8C2
:102080000450ADF800400020ADF80600ADF80200A5
:1020900069464FF0804000F01FFA0121880700F0E8
:1020A0008BF801221146900700F0A9F8012188075A
:1020B00000F088F83EBD000010B50121344800F062
:1020C0008DF8002862D001203249087000F0E2FC4F
:1020D00031480088401C3049088008460088322872
:1020E00001DB002008802D48007820B34FF4807178
:1020F0002B48FEF712FD2B480088401C2949088018
:1021000008460088962804DC3221214800F0DFF9D7
:1021100022E024480088C82804DC96211C4800F0EE
:10212000D6F919E01F480088B0F5AF7F04DCFA212A
:10213000174800F0CCF90FE09621154800F0C7F9D8
:1021400000201849088015490870012016490870B8
:1021500001021348FEF7DFFC1448007878B11448F8
:102160000078401C1249087008460078962806DB63
:10217000002008700D49087001200B4908700120EB
:102180000C4908700121024800F019F810BD000048
:1021900000040040450000203000002032000020F4
:1021A000000C01404A0000204C00002042000020AA
:1021B0004D00002044000020CA4302827047CA43F9
:1021C0000282704721B1028842F00102028004E0DD
:1021D00002884FF6FE731A400280704730B50246FF
:1021E000002000230024158A05EA0103958905EAE9
:1021F000010413B10CB1012000E0002030BD1AB180
:1022000083890B43838102E083898B4383817047F9
:1022100070B5002400220023058C4FF6FE76354071
:102220000584028C8388048B4FF68F752C40B51E75
:102230002C400D882C43751E2A400D892A434D8859
:102240002A43144DA8420BD0134DA84208D0134D79
:10225000A84205D0124DA84202D0124DA84213D177
:102260004FF6F7752A404D892A434FF6FB752A40F1
:102270008D882A434FF6FF652B404FF6FF552B40C4
:102280008D892B43CD892B4383800483CD8885861C
:10229000028470BD002C0140003401400040014028
:1022A00000440140004801400A460021018B4FF6DE
:1022B000F7731940114301837047000070B5002483
:1022C00000220023058C4FF6EF7635400584028C02
:1022D0008388048B48F6FF752C404FF6FF452C4051
:1022E0000D884FF6FF7606EA05252C434FF6DF757D
:1022F0002A400D8906EA05152A434D8806EA051588
:102300002A43154DA84202D0144DA8421DD14FF6C4
:102310007F752A404D894FF6FF7606EA05152A4358
:102320004FF6BF752A408D8806EA05152A434FF6F9
:10233000FF352B404FF2FF752B408D8906EA85054E
:102340002B43CD8906EA85052B4383800483CD8802
:102350000587028470BD0000002C0140003401405C
:102360000A460021018B4FF2FF7319404FF6FF73AD
:1023700003EA0223194301837047000070B500246B
:1023800000220023058C4FF6FF6635400584028C41
:102390008388848B4FF68F752C404FF6FC752C404C
:1023A0000D882C434FF6FF552A400D894FF6FF76D6
:1023B00006EA05252A434D8806EA05252A43154DD8
:1023C000A84202D0144DA8421DD14FF2FF752A40F9
:1023D0004D894FF6FF7606EA05252A434FF6FF356D
:1023E0002A408D8806EA05252A434EF6FF752B40C4
:1023F0004DF6FF752B408D8906EA05152B43CD89D7
:1024000006EA05152B4383808483CD888587028463
:1024100070BD0000002C0140003401400A4600213C
:10242000818B4FF6F7731940114381837047000089
:1024300070B5002200230024058C4EF6FF7635404F
:102440000584038C8488828B48F6FF752A404FF6FA
:10245000FF452A400D884FF6FF7606EA05252A43F8
:102460004DF6FF752B400D8906EA05352B434D8847
:1024700006EA05352B430B4DA84202D00A4DA8426F
:1024800008D14BF6FF752C408D894FF6FF7606EA92
:1024900085152C4384808283CD88A0F84050038426
:1024A00070BD0000002C0140003401400A460021AC
:1024B000818B4FF2FF7319404FF6FF7303EA02233B
:1024C00019438183704781867047018770478187F0
:1024D0007047818470470000002202881D4B98429B
:1024E0000ED01D4B98420BD0B0F1804F08D01B4B43
:1024F000984205D01A4B984202D01A4B984204D108
:102500004FF68F731A404B881A43174B984207D0E7
:10251000164B984204D04FF6FF431A40CB881A431B
:1025200002808B8883850B8803850A4B98420BD0E9
:10253000094B984208D00E4B984205D00D4B98425B
:1025400002D00D4B984201D10B7A0386012383827E
:1025500070470000002C014000340140000400409E
:1025600000080040000C0040001000400014004033
:1025700000400140004401400048014000B585B0E2
:1025800001210420FFF7A0FB01218803FFF79CFB3A
:102590004FF40070ADF8100018208DF813000320E0
:1025A0008DF8120004A91748FEF721FA4FF4806055
:1025B000ADF8100004208DF8130004A91148FEF7AF
:1025C00016FA4FF4E13000900020ADF80400ADF8A9
:1025D0000600ADF80800ADF80C000C20ADF80A00BC
:1025E0006946094800F038F9FFF7F7F8012240F290
:1025F0002551054800F00BF90121034800F075F85A
:1026000005B000BD000801400038014010B540F29F
:102610002551104800F0D1F8D8B10E4800F088F9E3
:102620000446204600F0F6F92046FFF72BF90A4849
:10263000806820B10848C06808B1FFF77DF90748F5
:10264000806808B1FEF7F2F840F22551014800F029
:102650003DF810BD003801407400002088000020C3
:1026600010B540F22551164800F0A7F800B3144801
:1026700000F05EF9C4B21348008800F40040B8B915
:1026800010480088B0F5C87F13DA00214FF0804071
:10269000FFF71FFF0B48008818B901218807FFF7D3
:1026A00091FD08490888411C064A118006490C54CE
:1026B00005E00448008840F400400249088010BD4D
:1026C0000048004070000020CC00002010B500221F
:1026D000002340F66A14A14200D100BF0A1201246F
:1026E0009440A3B2DC43048010BD21B1828942F43E
:1026F0000052828104E082894DF6FF731A40828184
:102700007047000010B504462048844209D10121D9
:102710008803FFF7E9FA00214FF48040FFF7E4FA5D
:1027200032E01B48844209D101214804FFF7BCFA7A
:1027300000214FF40030FFF7B7FA25E01548844236
:1027400009D101218804FFF7AFFA00214FF480205E
:10275000FFF7AAFA18E01048844209D10121C80401
:10276000FFF7A2FA00214FF40020FFF79DFA0BE0DB
:102770000A48844208D101210805FFF795FA002193
:102780004FF48010FFF790FA10BD000000380140B0
:102790000044004000480040004C00400050004011
:1027A00002460020B1F5007F00D100BF13880B4026
:1027B0000BB1012000E00020704770B502460024F4
:1027C00000230025002040F66A16B14200D100BF68
:1027D000C1F3421501F01F03012606FA03F3012D90
:1027E00002D19689334006E0022D02D1168A334089
:1027F00001E0968A33400C12012606FA04F416888A
:10280000344013B10CB1012000E0002070BDF0B5E0
:102810000346002400260025002040F66A17B9422E
:1028200000D100BF1846C1F3421401F01F06012772
:1028300007FA06F5012C01D10C3004E0022C01D17D
:10284000103000E014301AB107682F43076002E02F
:102850000768AF430760F0BD2DE9F04786B0054635
:102860000E460024A24600BFA1460027B08900B151
:1028700000BF2F462C8A4CF6FF700440F0880443BA
:102880002C82AC894EF6F3100440B088318908439D
:10289000718908430443AC81AC8A4FF6FF40044081
:1028A000B0890443AC8201A8FFF72EFA1F48874283
:1028B00002D1DDF810A001E0DDF80CA0A88900F439
:1028C000004040B10AEBCA0000EB0A103168490031
:1028D000B0FBF1F807E00AEBCA0000EB0A10316820
:1028E0008900B0FBF1F86420B8FBF0F00401200986
:1028F000642101FB1089A88900F4004040B1322016
:1029000000EBC900B0FBF1F000F00700044308E061
:10291000322000EB09106421B0FBF1F000F00F0051
:1029200004432C8106B0BDE8F08700000038014068
:1029300001468888C0F308007047C1F3080282800E
:10294000704700BFFEE770B504460D462946204695
:10295000FFF7F3FF00BF80212046FFF721FF00288B
:10296000F9D070BD02E008C8121F08C1002AFAD1D0
:1029700070477047002001E001C1121F002AFBD1FF
:102980007047000010B56FF00400FFF714FB0A4811
:1029900000680A49B0FBF1F0094908700846007860
:1029A00000EB4001C1EBC0104FF6FF7101EAC0001F
:1029B0000449088010BD00000000002000127A00C9
:1029C0004E000020500000200146114A12884A4360
:1029D0004FF0E0235A6100229A611A46126942F0D0
:1029E00001021A6100BF4FF0E022106900F00102FD
:1029F0001AB100F48032002AF5D04FF0E0221269BB
:102A000022F001024FF0E0231A6100229A61704720
:102A1000500000201D49097839B9B12805D101219C
:102A20001A4A11701A4908602EE0184909780129DC
:102A300007D1B12805D10221144A11701449486008
:102A400022E012490978022905D103210F4A1170A9
:102A50000F49886018E00D490978032905D1042140
:102A60000A4A11700A49C8600EE008490978042929
:102A700007D15B2808D10021044A1170044908617C
:102A800002E00021014A117070470000610000203F
:102A90008800002070B52A48007800284FD0002018
:102AA0002749087027480068FEF76CFF054626484E
:102AB0000068FEF7A3FF044640F63E00401B234992
:102AC000086004F57A70224908602048006840F6E2
:102AD000C411884203DB08461C49086008E01B4813
:102AE0000068B0F5FA7F03DC4FF4FA70174908600C
:102AF0001748006840F6C411884203DB08461449B1
:102B0000086008E012480068B0F5FA7F03DC4FF473
:102B1000FA700F4908600D4800680A2190FBF1F037
:102B200086B231460B48FFF7CEFC094800680A21FF
:102B300090FBF1F086B231460648FFF7C6FC70BD47
:102B400045000020540000205800002028000020EC
:102B50002C000020000400402DE9F0410024002555
:102B600000260027A0464FF480712948FDF7CAFFD0
:102B7000044620212748FDF7C5FF0546402125488A
:102B8000FDF7C0FF064680212248FDF7BBFF074640
:102B90007CB90A20FFF718FF002C36D14FF001084E
:102BA00000BF4FF480711A48FDF7ACFF0028F8D041
:102BB0002BE06DB90A20FFF707FF35BB4FF0020885
:102BC00000BF20211348FDF79DFF0028F9D01CE02D
:102BD0006EB90A20FFF7F8FEBEB94FF0030800BF38
:102BE00040210C48FDF78EFF0028F9D00DE067B9B1
:102BF0000A20FFF7E9FE47B94FF0040800BF802123
:102C00000448FDF77FFF0028F9D04046BDE8F08179
:102C100000080140000C01401FB54FF4A060FEF712
:102C200027FEFEF7AFFDFFF7D9F8FFF7F1F8FDF744
:102C3000BDFFFDF7DDFDFFF7A5FEFFF79FFCFEF7EB
:102C4000DBFF4FF4614000F069FDFDF7B5FEFDF7D5
:102C500041FEFEF781FEFEF759F84FF6FF70F023B4
:102C60004FF4A072002100900846FDF7FEFF0020FF
:102C700010214FF6FF724FF47843CDE90021029006
:102C8000FEA20146FEF715FD002010214FF6FF724F
:102C90004FF47843CDE900210290F9A201461020BB
:102CA000FEF7F6F9002010214FF6FF724FF478433B
:102CB000CDE900210290F4A201463020FEF7F9FC94
:102CC000002010214FF6FF724FF47843CDE9002128
:102CD0000290EEA22021FEF7ECFC002010214FF61E
:102CE000FF724FF47843CDE900210290E4A2202145
:102CF0001020FEF7CDF9002010214FF6FF724FF49F
:102D00007843CDE900210290DFA220213020FEF798
:102D1000D0FC002010214FF6FF724FF47843CDE92C
:102D200000210290DAA24021FEF7C3FC002010210E
:102D30004FF6FF724FF47843CDE900210290D7A2FD
:102D40006021FEF7B6FC10204FF6FF714FF4784279
:102D50000323CDE900210290642200214020FEF7E8
:102D60005DFC10204FF6FF714FF478420323CDE94C
:102D700000210290642220214020FEF74FFC102009
:102D80004FF6FF714FF478420323CDE90021029002
:102D9000002240210846FEF741FC10204FF6FF714B
:102DA0004FF478420323CDE90021029000226021F4
:102DB0004020FEF733FC002010214FF6FF724FF445
:102DC0007843CDE900210290B7A28021FEF760F997
:102DD000002010214FF6FF724FF47843CDE9002117
:102DE0000290A9A280216020FEF763FC0020102140
:102DF0004FF6FF724FF47843CDE900210290AEA266
:102E0000A021FEF745F9002010214FF6FF724FF484
:102E10007843CDE9002102909BA2A0216020FEF71B
:102E200048FCFFF737FE34E3FFF796FEA64908702B
:102E300008460078012820D1A448006880F480501A
:102E4000A2490860002010214FF6FF724FF478432A
:102E5000CDE9002102909EA28021A020FEF718F962
:102E60000A20FFF7B1FD31219B48FFF76CFD0A20D6
:102E7000FFF7AAFD002094490870934800780228C3
:102E800012D19248006880F48050904908600A206E
:102E9000FFF79AFD32219048FFF755FD0A20FFF712
:102EA00093FD00208849087087480078032823D1C3
:102EB0008648006880F4805084490860491583483A
:102EC0000C38FDF72AFE00207F490870FDF732FA22
:102ED0004FF400717D480C38FDF71DFE00201021D5
:102EE0004FF6FF724FF47843CDE9002102907BA2A8
:102EF000A0217020FEF7DDFB73480078042808D17C
:102F00000020714908707148006880F480506F4952
:102F100008607B480068D8B14FF400716B480C38EA
:102F2000FDF7FBFD4FF4805168480C38FDF7F3FDC9
:102F3000002010214FF6FF724FF47843CDE90021B5
:102F4000029070A2A0217020FEF7A2F800F0DEFA35
:102F50006F48007800287DD000206D4908706D48CA
:102F6000006867386C4908606C48006852386C49E2
:102F7000086069480068002808DA6748006840422D
:102F80006549086001206749086002E00020654942
:102F9000086063480068002808DA61480068404219
:102FA0005F49086001205F49086002E000205D4938
:102FB000086010204FF6FF714FF47842CDE90021F0
:102FC00002905448008880B20323024600210390F7
:102FD0004020FEF723FB10204FF6FF714FF478429C
:102FE000CDE9002102904D48008880B203230246BB
:102FF000202103904020FEF711FB10204FF6FF71B7
:103000004FF47842CDE9002102904348008880B215
:1030100003230246402103905020FEF7FFFA1020C0
:103020004FF6FF714FF47842CDE9002102903C4801
:10303000008880B203230246602103905020FEF7EF
:10304000EDFA38480068012879D1002010214FF6A8
:10305000FF7200E092E04FF47843CDE90021029046
:1030600031A240214820FEF724FB002010214FF61A
:10307000FF724FF47843CDE9002158E0582D00004D
:10308000D7F8B1EA000000003A000000592D000016
:10309000582D4552524F523A00000000592D4552CA
:1030A000524F523A00000000C8CBC1B3CAB6B1F0CB
:1030B000BDE1B9FB00000000D6B8CEC6CAB6B1F07B
:1030C000BDE1B9FB00000000400000200C0C0140F5
:1030D000CAB6B1F0D6D00000003801402020202030
:1030E00020202020202020202020202020202020E0
:1030F0002020202020202020202020202020000010
:1031000034012242C7EBB0B4CAD6D6B800000000E2
:10311000440000205400002034000020580000200B
:10312000380000203C0000202D00000007E0029045
:10313000AFF20C0260214820FEF7BBFA1EE0D54832
:103140000068D8B9002010214FF6FF724FF4784381
:10315000CDE900210290D0A240214820FEF7A9FA33
:10316000002010214FF6FF724FF47843CDE9002183
:103170000290C9A260214820FEF79BFAC748006868
:10318000C82832D1002010214FF6FF724FF4784347
:10319000CDE900210290C2A280217020FDF778FFC6
:1031A000002010214FF6FF724FF47843CDE9002143
:1031B0000290BDA28021A020FEF77BFA0020102102
:1031C0004FF6FF724FF47843CDE900210290B7A289
:1031D0008021B820FDF75CFF0120B749087000206E
:1031E000AE490860B549886011E1AC480068C9285B
:1031F00032D1002010214FF6FF724FF47843CDE911
:1032000000210290AEA280217020FDF741FF002036
:1032100010214FF6FF724FF47843CDE90021029060
:10322000A1A28021A020FEF744FA002010214FF631
:10323000FF724FF47843CDE9002102909BA28021D8
:10324000B820FDF725FF01209B4908700020934915
:1032500008609A498860DAE090480068CA2832D14C
:10326000002010214FF6FF724FF47843CDE9002182
:10327000029095A280217020FDF70AFF0020102106
:103280004FF6FF724FF47843CDE90021029086A2F9
:103290008021A020FEF70DFA002010214FF6FF72CA
:1032A0004FF47843CDE90021029080A28021B8201C
:1032B000FDF7EEFE01208049087000207749086084
:1032C0007E498860A3E075480068CB2832D1002091
:1032D00010214FF6FF724FF47843CDE900210290A0
:1032E0006FA280217020FDF7D3FE002010214FF641
:1032F000FF724FF47843CDE9002102906AA2802149
:10330000A020FEF7D6F9002010214FF6FF724FF4EF
:103310007843CDE90021029064A28021B820FDF716
:10332000B7FE01206449087000205C4908606349C9
:1033300088606CE059480068CD2832D10020102107
:103340004FF6FF724FF47843CDE90021029060A25E
:1033500080217020FDF79CFE002010214FF6FF72A7
:103360004FF47843CDE9002102904FA28021A020A4
:10337000FEF79FF9002010214FF6FF724FF47843BB
:10338000CDE90021029049A28021B820FDF780FEFE
:103390000120494908700020404908604749886079
:1033A00035E03E480068CC2831D101204A490870F8
:1033B000002010214FF6FF724FF47843CDE9002131
:1033C000029046A280217020FDF762FE00201021AD
:1033D0004FF6FF724FF47843CDE90021029032A2FC
:1033E0008021A020FEF765F9002010214FF6FF7222
:1033F0004FF47843CDE9002102903AA28021B82011
:10340000FDF746FE0020254908602C4988603848B1
:10341000007800283DD000203549087010214FF673
:10342000FF724FF47843CDE900210290AFF24432AD
:1034300080217020FEF73DF9002010214FF6FF7229
:103440004FF47843CDE900210290AFF26832A02119
:103450007020FEF72EF9002010214FF6FF724FF476
:103460007843CDE900210290AFF28832B02170207C
:10347000FEF71FF9002010214FF6FF724FF478433A
:10348000CDE900210290AFF2A432C0217020FEF7F6
:1034900010F9C9E43C0000202B0000005C00002073
:1034A000C8CECAC0BAC000002D2D2D00BBB6D3AD0A
:1034B000BDF8C8EB000000003200002088000020AA
:1034C000CDF5D0F100000000CEE9B9F9B3C9000094
:1034D000D0C2B3C9D4B1000042000020C7EBD6D897
:1034E000CAD40000CAB6B1F0CAA7B0DC0000000020
:1034F0004C00002010B50246012000E050430B1E96
:10350000A1F10104E1B2F9D110BD00001FB5002006
:1035100010214FF6FF724FF47843CDE9002102905D
:1035200064A2A0217020FDF7B3FDFEF7C6FA0446A1
:10353000002C7DD10120FEF79DFA0446002C78D1A5
:1035400003AB632200210120FEF7D4FA0446002CCD
:1035500070D110214FF6FF724FF47843CDE900216E
:10356000029057A2A0217020FDF792FD00201021AB
:103570004FF6FF724FF47843CDE90021029054A238
:10358000A021D020FEF795F8002010214FF6FF7201
:103590004FF47843CDE9002102904EA2A021EC2007
:1035A000FDF776FD002010214FF6FF724FF47843AF
:1035B000CDE9002102904AA2B0217020FEF779F8EF
:1035C00010204FF6FF714FF47842CDE900210290B0
:1035D000BDF80C200223B021A020FEF71FF8002028
:1035E00010214FF6FF724FF47843CDE9002102908D
:1035F0003CA2C0217020FDF74BFD002010214FF6AA
:10360000FF724FF47843CDE90021029037A2C02128
:10361000A020FEF74EF810204FF6FF714FF47842CD
:10362000CDE900210290BDF80E200223C02102E066
:103630003FE035E014E0B020FDF7F0FF4FF40071FB
:103640002B48FDF768FA4FF480712948FDF765FAB9
:1036500001202849087040F2DC50FFF7B5F91FE05F
:10366000002010214FF6FF724FF47843CDE900217E
:10367000029021A2A0217020FEF71BF8002010214B
:103680004FF6FF724FF47843CDE90021029020A25B
:10369000A0217020FDF7FCFC40F2DC50FFF794F90C
:1036A0004FF400711248FDF736FA4FF47A70FFF7C5
:1036B0008BF91FBDC7EBB0B4CAD6D6B80000000066
:1036C000D6B8CEC6D1E9D6A4B3C9B9A600000000C9
:1036D0002D2D2D00BBB6D3ADBDF8C8EB000000000A
:1036E00049443A00C6A5C5E4B6C800003A00000047
:1036F000000C01403200002020202020202020202B
:1037000020202020202020202020202020200000F9
:10371000D1E9D6A4CAA7B0DC0000000010B586B07D
:10372000044601210820FEF7CFFA01218804FEF7A4
:10373000ABFA2A48FEF7E6FF4FF48060ADF81000C0
:1037400003208DF8120018208DF8130004A92448D6
:10375000FDF74DF94FF40060ADF8100004208DF82E
:10376000130004A91E48FDF742F900940020ADF8AB
:103770000400ADF80600ADF80800ADF80C000C2010
:10378000ADF80A0069461548FFF766F801211348AD
:10379000FEF7ABFF012240F225511048FFF737F842
:1037A00027208DF8140002208DF8150003208DF8D5
:1037B000160001208DF8170005A8FEF721F841F644
:1037C0001F416320FEF754FC0020064908800021B9
:1037D0004FF08040FEF7F6FC06B010BD00480040F8
:1037E000000C0140700000200000000000000000FC
:1037F00000000000000004040404040000040000B1
:1038000014140A00000000000000000000000A0A72
:103810001F0A0A1F0A0A000000040E1505060C14F0
:10382000150E0400000012150D152E2C2A12000092
:103830000000040A0A3615152916000002020100CC
:103840000000000000000000100808040404040444
:10385000080810000204040808080808040402000C
:1038600000000004150E0E15040000000000000802
:10387000083E0808000000000000000000000000F2
:103880000202010000000000003F000000000000F4
:1038900000000000000000000002000000201010E6
:1038A000080804040202010000000E111111111198
:1038B000110E00000000040604040404040E0000BD
:1038C00000000E1111080402011F000000000E117B
:1038D000100C1010110E00000000080C0C0A091F3B
:1038E000081C000000001F01010F1110110E000044
:1038F00000000C12010D1311110E000000001E102B
:10390000080804040404000000000E11110E111137
:10391000110E000000000E1111191610090600000A
:10392000000000000400000000040000000000008F
:103930000004000000040400000010080402020457
:1039400008100000000000003F003F0000000000E1
:1039500000000204081010080402000000000E110C
:10396000110804040004000000001C22292D2D1D54
:10397000221C0000000004040C0A0A1E123300007E
:1039800000000F12120E1212120F000000001E1182
:1039900001010101110E000000000F12121212129B
:1039A000120F000000001F120A0E0A02121F000070
:1039B00000001F120A0E0A020207000000001C127B
:1039C00001013911120C000000003312121E1212F4
:1039D0001233000000001F0404040404041F00004C
:1039E00000003E0808080808080809070000371208
:1039F0000A060A1212370000000007020202020241
:103A0000223F000000003B1B1B1B15151535000055
:103A100000003B1216161A1A1217000000000E11B1
:103A200011111111110E000000000F12120E0202EE
:103A30000207000000000E1111111117190E1800D5
:103A400000000F12120E0A121237000000001E11A1
:103A500001060810110F000000001F1504040404E3
:103A6000040E00000000331212121212120C000099
:103A700000003312120A0A0C04040000000015159D
:103A800015150E0A0A0A000000001B0A0A04040A9F
:103A90000A1B000000001B0A0A0A0404040E0000AE
:103AA00000001F0908040402121F00001C04040483
:103AB0000404040404041C000002020404040808B2
:103AC000081010000E0808080808080808080E006A
:103AD000040A0000000000000000000000000000D8
:103AE000000000000000003F020400000000000091
:103AF0000000000000000000000C121C123C00003E
:103B000000030202020E1212120E0000000000005A
:103B1000001C1202120C000000181010101C1212CF
:103B2000123C000000000000000C121E021C0000ED
:103B300000182404041E0404041E000000000000F9
:103B4000003C120C021C221C00030202020E121284
:103B5000123700000004040000060404040E0000F4
:103B600000080800000C0808080808070003020203
:103B7000021A0A060A1300000007040404040404DD
:103B8000041F000000000000000F151515150000AF
:103B900000000000000F12121237000000000000A9
:103BA000000C1212120C000000000000000F121294
:103BB000120E020700000000001C1212121C103826
:103BC00000000000001B06020207000000000000C9
:103BD000001E020C101E000000000004041E04045D
:103BE000041C000000000000001B1212123C000028
:103BF00000000000001B0A0A04040000000000008E
:103C00000015150E0A0A000000000000001B0A043F
:103C10000A1B000000000000003312120C0804030D
:103C200000000000001E0804041E00001808080818
:103C3000080C0808080818000808080808080808F8
:103C40000808080806040404040804040404060020
:103C50001609000000000000000000000000000045
:103C6000000000000000000000000000000000084C
:103C700008080808080800001818000000486C240C
:103C800012000000000000000000000000000024FE
:103C900024247F1212127F12121200000000081C4E
:103CA0002A2A0A0C1828282A2A1C080800000022A0
:103CB000251515152A585454542200000000000CF4
:103CC0001212120A76252911916E000000060604D0
:103CD0000300000000000000000000000040201071
:103CE0001008080808080810102040000002040806
:103CF0000810101010101008080402000000000046
:103D000008086B1C1C6B0808000000000000000085
:103D1000080808087F0808080800000000000000E4
:103D20000000000000000000060604030000000080
:103D300000000000FE000000000000000000000085
:103D400000000000000000000606000000008040A7
:103D5000402020101008080404020200000000188F
:103D6000244242424242424224180000000000081D
:103D70000E08080808080808083E00000000003C7B
:103D80004242422020100804427E00000000003C15
:103D90004242201820404042221C00000000002027
:103DA0003028242422227E20207800000000007E7B
:103DB0000202021A26404042221C00000000003885
:103DC0002402021A26424242241800000000007E0B
:103DD0002222101008080808080800000000003C13
:103DE0004242422418244242423C00000000001893
:103DF0002442424264584040241C0000000000005D
:103E00000000181800000000181800000000000052
:103E10000000000800000000000808040000004046
:103E200020100804020408102040000000000000D8
:103E300000007F0000007F00000000000000000282
:103E40000408102040201008040200000000003C7C
:103E50004242464020101000181800000000001CCC
:103E6000225A555555552D42221C000000000008CD
:103E700008181414243C224242E700000000001FEE
:103E80002222221E22424242221F00000000007C09
:103E90004242010101010142221C00000000001FFA
:103EA0002242424242424242221F00000000003FA2
:103EB0004212121E12120242423F00000000003F56
:103EC0004212121E12120202020700000000003C01
:103ED0002222010101712122221C0000000000E7C2
:103EE000424242427E42424242E700000000003E1F
:103EF0000808080808080808083E00000000007CC0
:103F000010101010101010101010110F000000777A
:103F100022120A0E0A121222227700000000000765
:103F20000202020202020202427F00000000007749
:103F3000363636362A2A2A2A2A6B0000000000E389
:103F400046464A4A52525262624700000000001C34
:103F50002241414141414141221C00000000003FFB
:103F6000424242423E020202020700000000001CE0
:103F70002241414141414D53321C60000000003F4D
:103F80004242423E1212222242C700000000007C40
:103F90004242020418204042423E00000000007FDE
:103FA0004908080808080808081C0000000000E785
:103FB0004242424242424242423C0000000000E78C
:103FC0004242222424141418080800000000006B48
:103FD000494949495555362222220000000000E790
:103FE000422424181818242442E700000000007717
:103FF0002222141408080808081C00000000007E93
:104000002120101008040442423F000000780808F4
:1040100008080808080808080808780000000202D4
:10402000040408080810102020204040001E101032
:10403000101010101010101010101E000038440046
:104040000000000000000000000000000000000070
:104050000000000000000000000000FF0006080053
:104060000000000000000000000000000000000050
:104070000000003C4278444242FC00000000000383
:104080000202021A26424242261A000000000000E4
:1040900000000038440202024438000000000060C2
:1040A000404040784442424264D800000000000092
:1040B0000000003C427E0202423C0000000000F092
:1040C0008808087E08080808083E00000000000074
:1040D0000000007C22221C023C42423C0000000303
:1040E0000202023A4642424242E700000000000C4F
:1040F0000C00000E08080808083E00000000003010
:1041000030000038202020202020221E0000000344
:1041100002020272120A1612227700000000000E3C
:104120000808080808080808083E00000000000009
:104130000000007F9292929292B70000000000006F
:104140000000003B4642424242E7000000000000FF
:104150000000003C42424242423C0000000000009D
:104160000000001B26424242221E020700000000FF
:104170000000007844424242447840E000000000E1
:10418000000000774C040404041F0000000000003D
:104190000000007C42023C40423E00000000000063
:1041A0000008083E08080808083000000000000069
:1041B000000000634242424262DC00000000000056
:1041C000000000E74224241408080000000000005A
:1041D000000000EB49495555222200000000000074
:1041E0000000007624181818246E0000000000005B
:1041F000000000E74224241418080807000000000B
:104200000000007E22100808447E000000C020202C
:1042100020202010202020202020C000101010106E
:1042200010101010101010101010101000060808B8
:104230000808081008080808080806000C32C20020
:10424000000000000000000000000000000000006E
:10425000000000000000000000000000000000005E
:10426000000000000000000000000000000000004E
:10427000000000000000000000000000000000003E
:1042800000000000600060006000600060006000EE
:10429000600040002000200020000000000000001E
:1042A00060006000600000000000000000000000EE
:1042B000600660063003980188004400000000009A
:1042C00000000000000000000000000000000000EE
:1042D00000000000000000000000000000000000DE
:1042E000000000001002100210021002FE07FE077C
:1042F00008020801080108010801FE07FE07040181
:10430000040104010401000000000000000000009E
:10431000000040004000F00158034C03CC034C0067
:1043200058007000E000C001C00140034C035C0372
:104330004C034801F0004000400000000000000075
:10434000000000000E010A0191009100910051004F
:1043500051003A00AE03A00250045004480448043F
:1043600048048402840300000000000000000000F4
:104370000000000038006C006C006C006C006C00E9
:104380002C0098071C011A01330133016301E3007B
:10439000C308C6093C070000000000000000000040
:1043A0000C001C00100010000800040000000000B9
:1043B00000000000000000000000000000000000FD
:1043C00000000000000000000000000000000000ED
:1043D0000004000200018000800040004000200036
:1043E000200020002000200020002000400040008D
:1043F00080008000000100020004000000000000B6
:1044000002000400080010001000200020004000FE
:1044100040004000400040004000400020002000DC
:10442000100010000800040002000000000000005E
:1044300000000000000000004000C0004000460CEA
:104440004E0FD001F0015E0F460C400040004000CE
:10445000000000000000000000000000000000005C
:10446000000000000000000000004000400040008C
:1044700040004000FE0F400040004000400040006F
:10448000000000000000000000000000000000002C
:10449000000000000000000000000000000000001C
:1044A000000000000000000000000000000000000C
:1044B0000C001C00100010000800040000000000A8
:1044C00000000000000000000000000000000000EC
:1044D00000000000FE0700000000000000000000D7
:1044E00000000000000000000000000000000000CC
:1044F00000000000000000000000000000000000BC
:1045000000000000000000000000000000000000AB
:104510001C001C001C000000000000000000000047
:10452000000400060002000300010001800080007A
:104530004000400060002000200010001000080033
:1045400008000C000400060002000000000000004B
:10455000000000000000F00098010C030C030606A8
:1045600006060606060606060606060606060C03E8
:104570000C039801F00000000000000000000000A3
:1045800000000000000040007C006000600060004F
:10459000600060006000600060006000600060001B
:1045A00060006000FC03000000000000000000004C
:1045B000000000000000F800840102030603060367
:1045C000000300018001C00060002000100008020C
:1045D00004020602FE0300000000000000000000CC
:1045E0000000000000007800C600860186018001FE
:1045F0008001C00070008001000100030003060379
:1046000006038601F8000000000000000000000022
:1046100000000000000080018001C001A001A00195
:1046200090018801880184018201FE0F80018001D0
:1046300080018001E0070000000000000000000091
:10464000000000000000FC0304000400040004005B
:104650000400F4008C0104030003000306030603B6
:1046600082018401F800000000000000000000004A
:10467000000000000000E00118030C030C0004001F
:104680000600E60116030E060606060606060406E2
:104690000C021803F0000000000000000000000001
:1046A000000000000000F8070C06040204010001ED
:1046B0000001800080004000400040006000600079
:1046C00060006000600000000000000000000000CA
:1046D000000000000000F8010C03060606060606AE
:1046E0000C021C03F000C8010C03060606060606B1
:1046F00006060C03F00100000000000000000000AE
:10470000000000000000F0000C010C030602060689
:104710000606060606078C06780600060003000358
:104720000C018C0178000000000000000000000077
:104730000000000000000000000000000000000079
:10474000E000E000E00000000000000000000000C9
:10475000E000E000E00000000000000000000000B9
:104760000000000000000000000000000000000049
:104770006000600000000000000000000000000079
:1047800000006000600040002000200000000000E9
:104790000000000000040002000180004000200032
:1047A00010000800040008001000200040008000F5
:1047B00000010002000400000000000000000000F2
:1047C00000000000000000000000000000000000E9
:1047D000FE07000000000000FE07000000000000CF
:1047E00000000000000000000000000000000000C9
:1047F00000000000040008001000200040008000BD
:1048000000010002000400020001800040002000BE
:10481000100008000400000000000000000000007C
:10482000000000000000E0031806040C040C0C0C4F
:104830000C0C000780014000400040000000000018
:10484000E000E000E00000000000000000000000C8
:1048500000000000E00018030C02CC0564056605AA
:10486000A605B604B604B604B604B602E4010C0408
:104870000C021803F000000000000000000000001F
:10488000000000000000600060005000D0009000B8
:104890009000880088010801F80104030403040261
:1048A000020202060F0F00000000000000000000DE
:1048B000000000000000FE008C030C030C030C033E
:1048C0000C038C01FC000C030C020C060C060C06FD
:1048D0000C060C03FE0100000000000000000000B8
:1048E000000000000000E00318030C060C040404A0
:1048F00006000600060006000600060006040C047A
:104900000C021803F000000000000000000000008E
:104910000000000000007F008C010C030C030C065B
:104920000C060C060C060C060C060C060C060C03FA
:104930000C038C017F00000000000000000000005C
:10494000000000000000FF03060306040604060042
:1049500086008600FE0086008600860006000604AB
:1049600006040602FF030000000000000000000033
:10497000000000000000FF03060306040604060012
:1049800086008600FE00860086008600060006007F
:10499000060006001F0000000000000000000000EC
:1049A000000000000000F00018010C020C020402DC
:1049B0000600060006000600C60F060306030C03E9
:1049C0000C031803F00000000000000000000000CD
:1049D0000000000000000F0F060606060606060689
:1049E00006060606FE07060606060606060606066E
:1049F000060606060F0F0000000000000000000081
:104A0000000000000000FC03600060006000600027
:104A10006000600060006000600060006000600096
:104A200060006000FC0300000000000000000000C7
:104A3000000000000000F807C000C000C000C00077
:104A4000C000C000C000C000C000C000C000C00066
:104A5000C000C000C000C60066003C0000000000AE
:104A6000000000000000CF038601C60046002600BB
:104A7000160036002E006E004600C6008600860135
:104A8000060106038F070000000000000000000080
:104A90000000000000001F000600060006000600DF
:104AA00006000600060006000600060006000604D2
:104AB00006040602FF0300000000000000000000E2
:104AC0000000000000000707860386038E038E03A4
:104AD0004E034E034A035A035A033A033203320386
:104AE00032031203870700000000000000000000EE
:104AF0000000000000008E0F0C021C021C02340299
:104B00003402640264024402C40284028403840303
:104B1000040304031F020000000000000000000066
:104B2000000000000000F00098010C030C020606D3
:104B300006060606060606060606060606060C0213
:104B40000C039801F00000000000000000000000CD
:104B5000000000000000FF00060306060606060629
:104B6000060606068603FE0006000600060006008E
:104B7000060006001F00000000000000000000000A
:104B8000000000000000F00098010C030C02060673
:104B900006060606060606060606060676064C0203
:104BA000CC039801F0008007000300000000000023
:104BB000000000000000FF010603060606060606C8
:104BC00006060603FE004600C600860086010603B0
:104BD000060306060F0E00000000000000000000A3
:104BE000000000000000F8020C03060206020600A6
:104BF0000E003C00F800E0038003000702060206F6
:104C000006060C03F0010000000000000000000098
:104C1000000000000000FE076204610861086000F7
:104C20006000600060006000600060006000600084
:104C300060006000F80100000000000000000000BB
:104C40000000000000001E070C020C020C020C0207
:104C50000C020C020C020C020C020C020C020C02E4
:104C60000C021801F000000000000000000000002D
:104C70000000000000000F070602040104010C01FF
:104C80000C018800880098009800500050007000C7
:104C900030002000200000000000000000000000A4
:104CA000000000000000F70E6204420446044604BF
:104CB00064026402E402E4029C029C0198019801EF
:104CC000880188008800000000000000000000004B
:104CD0000000000000009E070C0108011801900070
:104CE000B0006000200060006000D00090008801EB
:104CF000080104038E07000000000000000000000F
:104D00000000000000000F0F060404020C0208015E
:104D10001801B800B0007000600060006000600022
:104D200060006000F80100000000000000000000CA
:104D3000000000000000FC070C02060302018001D5
:104D400080004000400020002000100018000804EF
:104D50000C040402FE03000000000000000000003C
:104D6000E003200020002000200020002000200080
:104D70002000200020002000200020002000200033
:104D80002000200020002000E003000000000000C0
:104D900000000000040004000800080010001000DB
:104DA00010002000200040004000C0008000800073
:104DB00000010001000200020002000400000000E7
:104DC0007C004000400040004000400040004000A7
:104DD00040004000400040004000400040004000D3
:104DE00040004000400040007C00000000006000E7
:104DF000900008010000000000000000000000001A
:104E000000000000000000000000000000000000A2
:104E10000000000000000000000000000000000092
:104E20000000000000000000000000000000000082
:104E30000000000000000000000000000000000072
:104E400000000000000000000000FF0F0000000054
:104E500018006000000000000000000000000000DA
:104E60000000000000000000000000000000000042
:104E70000000000000000000000000000000000032
:104E80000000000000000000000000000000000022
:104E9000F0010C030C030003E0031C030E030603E4
:104EA00006038E0B7C0E00000000000000000000D6
:104EB0000000000008000E000C000C000C000C00AC
:104EC000CC013C031C060C060C060C060C060C065A
:104ED0000C021C03E40100000000000000000000C0
:104EE00000000000000000000000000000000000C2
:104EF000F0008C018C018601060006000600060207
:104F00000C020C01F0000000000000000000000096
:104F1000000000000002C0030003000300030003C0
:104F200078038C030C03060306030603060306033B
:104F300004038C077801000000000000000000005E
:104F40000000000000000000000000000000000061
:104F5000E001180308020C060C06FC070C000C000C
:104F600018041802E001000000000000000000002A
:104F7000000000000000C003600630063000300072
:104F8000FE013000300030003000300030003000D2
:104F900030003000FC0100000000000000000000B4
:104FA0000000000000000000000000000000000001
:104FB000F007D8068C018C018C019801F8000C00D8
:104FC000FC00CC03060306038E03F800000000007B
:104FD0000000000008000E000C000C000C000C008B
:104FE000EC011C030C030C030C030C030C030C035B
:104FF0000C030C039E0700000000000000000000EE
:1050000000000000000060006000000000004000A0
:105010007C00600060006000600060006000600074
:1050200060006000FC0300000000000000000000C1
:10503000000000000000C001C001000000000001ED
:10504000F0018001800180018001800180018001E8
:105050008001800180018001CC007C000000000004
:105060000000000008000E000C000C000C000C00FA
:105070008C038C008C004C006C005C008C008C015C
:105080000C010C039E07000000000000000000005F
:105090000000000040007C006000600060006000D4
:1050A0006000600060006000600060006000600000
:1050B00060006000FC030000000000000000000031
:1050C00000000000000000000000000000000000E0
:1050D0003707EE0666066606660666066606660616
:1050E00066066606FF0F00000000000000000000DA
:1050F00000000000000000000000000000000000B0
:10510000EE011C030C030C030C030C030C030C0337
:105110000C030C039E0700000000000000000000CC
:10512000000000000000000000000000000000007F
:10513000F00098010C03060606060606060606069B
:105140000C030C03F0000000000000000000000051
:10515000000000000000000000000000000000004F
:10516000EE011C030C060C060C060C060C060C06C5
:105170000C031C03EC010C000C003E0000000000BE
:10518000000000000000000000000000000000001F
:1051900078028C030C0306030603060306030603CA
:1051A00004038C03780300030003C0070000000021
:1051B00000000000000000000000000000000000EF
:1051C0009F03580638061800180018001800180029
:1051D00018001800FF0000000000000000000000A0
:1051E00000000000000000000000000000000000BF
:1051F000F0031C030C020C023800F000C00304038F
:1052000004038C03FC01000000000000000000000B
:1052100000000000000000002000200030003000EE
:10522000FE0130003000300030003000300030002F
:1052300030023002E0010000000000000000000029
:105240000000000000000000000000000000080254
:105250008E030C030C030C030C030C030C030C0354
:105260000C039C0778010000000000000000000013
:10527000000000000000000000000000000000002E
:105280001E070C020801080118019000B000B000D0
:10529000600060002000000000000000000000002E
:1052A00000000000000000000000000000000000FE
:1052B000F70E6204460464026402EC029C01980149
:1052C00098019801080000000000000000000000A4
:1052D00000000000000000000000000000000000CE
:1052E000BC0718011001B00060006000E0009000F1
:1052F000080108039E0700000000000000000000F5
:10530000000000000000000000000000000000009D
:105310009E0708010801080190009000B00060009D
:10532000600060002000200024001C00000000003D
:10533000000000000000000000000000000000006D
:10534000FC018401C4004400600020003000180209
:1053500008020C03FC010000000000000000000037
:1053600000038000800080008000800080008000BA
:10537000800040002000400080008000800080000D
:10538000800080008000800000030000400040009A
:10539000400040004000400040004000400040000D
:1053A00040004000400040004000400040004000FD
:1053B000400040004000400040004000000000006D
:1053C0000C00100010001000100010001000100061
:1053D00010002000400020001000100010001000FD
:1053E00010001000100010000C00000000001C0055
:1053F0002204C2048003000000000000000000003E
:10540000000000000000000000000000000000009C
:10541000000000000000000000000000000000008C
:10542000000000000000000000000000000000007C
:10543000000000000000000000000000000000006C
:10544000000000000000000000000000000000005C
:10545000000000000000000000000000000000004C
:10546000000000000000C001C001C001C001C00177
:10547000C001C001800080008000800080008000AA
:10548000800000000000000000008001C003C00395
:10549000800100000000000000000000000000008B
:1054A0000000E01CE01CF01E700E38071803080115
:1054B0008400000000000000000000000000000068
:1054C00000000000000000000000000000000000DC
:1054D00000000000000000000000000000000000CC
:1054E00000000000000000002010201020102010FC
:1054F0002010FE7FFE7F100810081008100810080A
:1055000010081008FE7FFE7F080408040804080441
:10551000080400000000000000000000000000007F
:105520000000000000010001C007601910311831AF
:105530001839183938017001E001C0038007000FE5
:10554000001D003900311C311C310C310C11180DBB
:10555000E007000100010001000000000000000061
:1055600000000000000000001C1036186308630CE7
:1055700063046304630263026301361D9C37802267
:1055800080634063406320632063306310221836D9
:10559000081C0000000000000000000000000000E7
:1055A0000000000000000000F00098018C018C0158
:1055B0008C018C018C00CC007800183E1C08360849
:1055C000320863046304C304C303834306438E2683
:1055D000781C000000000000000000000000000037
:1055E00000001C003C003C003000300010000C00AB
:1055F00006000000000000000000000000000000A5
:10560000000000000000000000000000000000009A
:10561000000000000000000000000000000000008A
:1056200000000040002000100008000C00040006EC
:1056300000030003000380018001800180018001DC
:1056400080018001800100030003000300060006C2
:10565000000C0008001000200040000000000000C6
:10566000000002000400080010003000200060006C
:10567000C000C000C0008001800180018001800165
:10568000800180018001C000C000C0006000600097
:1056900030001000080004000200000000000000BC
:1056A0000000000000000000000000000001800376
:1056B000800300011C713C79783DC0070001C007E0
:1056C000783D3C791C71000180038003800100005B
:1056D00000000000000000000000000000000000CA
:1056E00000000000000000000000000000000001B9
:1056F000000100010001000100010001FC7F000128
:105700000001000100010001000100010000000093
:105710000000000000000000000000000000000089
:105720000000000000000000000000000000000079
:105730000000000000000000000000000000000069
:105740000000000000000000000000001C003C0001
:105750003C003000300010000C000600000000008B
:105760000000000000000000000000000000000039
:10577000000000000000000000000000FE7F0000AC
:105780000000000000000000000000000000000019
:105790000000000000000000000000000000000009
:1057A00000000000000000000000000000000000F9
:1057B00000000000000000000000000000000000E9
:1057C0000000000000000000000018003C003C0049
:1057D00018000000000000000000000000000000B1
:1057E0000000004000600020003000100018000899
:1057F000000C00040006000200030001800180008C
:10580000C0004000600020003000100018000800B8
:105810000C00040006000200000000000000000070
:105820000000000000000000C007600C30181830B5
:10583000183018200C600C600C600C600C600C6060
:105840000C600C600C601820183018303018600C98
:10585000C007000000000000000000000000000081
:10586000000000000000000000018001F80180013C
:105870008001800180018001800180018001800120
:105880008001800180018001800180018001C003CE
:10589000F81F0000000000000000000000000000F1
:1058A0000000000000000000E007101C0818043091
:1058B00004300C300C3000300018000800040002E6
:1058C0000001800040002020102008200430FC1F30
:1058D000FC1F0000000000000000000000000000AD
:1058E0000000000000000000E003180E0C0C0C1873
:1058F0000C180C180018000C0006C003000E00184D
:105900000010003000300C300C300C100C18180C4B
:10591000E0030000000000000000000000000000A4
:105920000000000000000000000C000E000E000F40
:10593000800E800E400E600E200E100E100E080E0F
:10594000040E040EFE7F000E000E000E000E000E70
:10595000000EC07F000000000000000000000000FA
:105960000000000000000000F03FF03F10001000B9
:10597000100008000800C807280C1818081000308C
:105980000030003000300C300C3004180418080CC3
:10599000F003000000000000000000000000000014
:1059A0000000000000000000800FC0102030103008
:1059B0001800180008000C008C0F6C183C301C609C
:1059C0000C600C600C600C6018601820303060189F
:1059D000C007000000000000000000000000000000
:1059E0000000000000000000F83FF83F1C100C0809
:1059F0000408040400040002000200010001000188
:105A0000800080008000C000C000C000C000C00056
:105A1000C0000000000000000000000000000000C6
:105A20000000000000000000E007300C18180C30E7
:105A30000C300C301C3038187008E007B007180E16
:105A40000C1C063806300630063006300C18180CD0
:105A5000E003000000000000000000000000000063
:105A60000000000000000000E00318040C080C18FF
:105A70000610063006300630063006380C3C183664
:105A8000F03100300018001800180C0C0C060C0344
:105A9000F001000000000000000000000000000015
:105AA00000000000000000000000000000000000F6
:105AB0000000000000008001C003C003800100005E
:105AC000000000000000000000008001C003C003CF
:105AD0008001000000000000000000000000000045
